:1000000000000420750300005D0300005F03000092
:1000100061030000630300006503000000000000AE
:100020000000000000000000000000006703000066
:1000300069030000000000006B0300006D03000076
:100040006F0300006F030000411900006F03000000
:100050006F0300006F030000951700006F0300009E
:100060006F0300006F0300006F0300006F030000C8
:100070006F0300006F0300006F0300006F030000B8
:100080006F0300000D1000006F0300006F030000FD
:100090006F0300006F0300006F0300006F03000098
:1000A0006F0300006F0300006F0300006F03000088
:1000B0006F0300006F03000000000000000000005C
:1000C0006F0300006F0300006F0300006F03000068
:1000D0006F0300006F0300006F0300006F03000058
:1000E0006F0300006F0300006F03000000000000BA
:1000F000000000006F030000000000006F0300001C
:1001000000000000000000000000000000000000EF
:1001100000000000000000000000000000000000DF
:1001200000000000000000000000000000000000CF
:1001300000000000000000000000000000000000BF
:1001400000000000000000000000000000000000AF
:10015000000000000000000000000000000000009F
:10016000000000000000000000000000000000008F
:10017000000000000000000000000000000000007F
:10018000000000000000000000000000000000006F
:10019000000000000000000000000000000000005F
:1001A000000000000000000000000000000000004F
:1001B000000000000000000000000000000000003F
:1001C000000000000000000000000000000000002F
:1001D000000000000000000000000000000000001F
:1001E000000000000000000000000000000000000F
:1001F00000000000000000000000000000000000FF
:10020000354936480A1A02D0072291438D463449AF
:1002100034480A1A06D00722914381F30988022242
:1002200082F3148830483149314A00F044F83148AB
:100230003149324A00F03FF831483249324A00F041
:100240003AF832483249334A00F035F832483349F7
:10025000334A00F030F833483349344A00F02BF881
:1002600033483449344A00F026F8344834490022EF
:1002700000F02CF833483449002200F027F83348C6
:100280003349091A082902DB002202604160314A21
:1002900090471F481F49884205D00268043003B4C4
:1002A000904703BCF7E700208646EC46002000217B
:1002B000294A9047FEE7884207D0521A05D00378B2
:1002C00001300B700131013AF9D17047884202D0F8
:1002D00002700130FAE770470000042000E00320BC
:1002E0000000042000000420543900000000002019
:1002F00038010020D0030000D00300009C32000031
:1003000054390000000000200000002000330000ED
:100310000033000000330000003300000033000011
:1003200000330000003300000033000052390000A9
:100330008C3A0000380100203801002038010020EC
:10034000740B0020740B0020740B0020740B002031
:10035000742B00209D03000089230000FEE7FEE7C8
:10036000FEE7FEE7FEE7FEE7FEE7FEE7FEE7FEE765
:1003700000F002B8FFF7FCBF0F484FF007018843B9
:1003800085460E4880470E48016841F470010160BF
:10039000BFF34F8FBFF36F8FFFF732BF09480A4992
:1003A0000A4A884207D0521A05D0037801300B70F0
:1003B0000131013AF9D1704700000420352F0000C7
:1003C00088ED00E000330000000000200000002065
:1003D0007047000007B5044B0093044A402300F027
:1003E00032F803B05DF804FBF1030000390100208E
:1003F0002DE9F84388461446B2B10F4B0F4E032542
:10040000002743F00109224608EB0701002002F013
:1004100035FD0744241A48B933782BB14FF47A409C
:10042000C847013D02D13570BDE8F8830123337020
:10043000002CE8D1F8E700BF0033000038010020AD
:10044000704702F065BDF0B595B01D4616460846EA
:100450000C4601F0CDF81A9B0D93CDE908650025F7
:100460002B46082205A920460A958DF82C500C959C
:1004700001F0DBF8079B0293069B03939DF8143071
:100480008DF8115003F00302012A1DD1BDF814208C
:10049000059DC3F3C203C2F383168DF81030B2007A
:1004A00008230EA9204601F0C0F8C5F3952508AB36
:1004B0000093324602AB0EA9284600F039FB2046D5
:1004C00001F09AF815B0F0BD022AF8D1BDF8165027
:1004D000C3F3C203C5F389158DF810300827082D22
:1004E0002E4628BF08263B4632460EA9204601F07C
:1004F0009CF8AD1B08AB02AA31460EA8374400F0A9
:100500007BFB002DEBD1DAE708B5FFF79AFF044833
:10051000042100F075FA034B01225A7108BD00BF97
:10052000DC32000000000020037813F0040216D033
:1005300003F00303012B03D0022B09D001207047E5
:100540000A6800880232C0F3831002440A60F5E7AB
:100550000B684288023303EB92130B60EEE7104600
:10056000704700002DE9F04F044685B0861C00203E
:100570000F46154600F046FD454801683960D0E950
:100580000132134401335B1A824600F21C4700F526
:10059000836900F21448B3421BD30020002D72D0AF
:1005A00004F00F039B0143F0050363F30F00DAF837
:1005B0000020DAF808301340033316444AF82300C9
:1005C0000020CAF8006000F01FFD012005B0BDE862
:1005D000F08F0121384600F046FD484600F05BFDF3
:1005E000404600F058FDDAF80400DAF808B0009050
:1005F00000EA0B0003300AEB80006946FFF794FF26
:10060000009B50BB0BEA03020AEB820203F1020CCF
:10061000D2680192013303EA0B0B0AEB8B0B02F059
:100620000302012ADBF80C10CDF800C023D0022A07
:1006300016D08346404600F031FD10B1009BCAF849
:1006400004305946384600F00EFDDAE90123134420
:10065000DAF8002001339B1A9DE70BEA0300C9E793
:10066000BDF80630C3F3891303334FEA114B0CEB8B
:1006700093030093DEE7BDF80430C3F383134FEA1E
:10068000114B6344F5E7A40544F006008FE700BF73
:100690004C0200200B4B0C48FF2210B59A60002240
:1006A000C3F81824C3E90022C3F81424012283F8F4
:1006B000202400F056FF044610B9044800F0BFFFA4
:1006C000204610BD4C020020EC3200003C330000FC
:1006D00030B50A4C71B10A4A0A49121BD2080023EC
:1006E0009A4201D1002030BD31F82350854202D01A
:1006F0000133F5E7034654F83300F4E79C32000079
:10070000DC32000000000020094B013903EBC0007F
:10071000032909D8DFE801F00A0204060420704723
:100720000079704740797047002070470220704779
:100730009C320000034BD3E90030C31A58425841A1
:10074000704700BF4C0200202DE9F04385B0FFF751
:10075000F1FF0646002840F0F5807B4DC5F81804EF
:10076000BFF34F8F6B68AC6800932340033305EBF6
:1007700083006946FFF7D8FE009B18B1D5F818240E
:10078000002A5FD004EA0302991C013305EB8202C0
:10079000234005EB8303D268DB68029302F0030376
:1007A000022B0192009160D1BDF806306748C3F377
:1007B0008917502FB84628BF4FF0500868F38F13A1
:1007C00008F10801ADF8063000F0E3FE0646002807
:1007D00000F0A38000F00CFF0023082201A930469E
:1007E00000F019FF009924EA01020132B8EB820FF0
:1007F0004FEA820332D95FFA88F85BB32140DCB25A
:10080000A8EB040803315FFA88F9A046504C05EBC9
:10081000810108234246304600F0FDFE34B108F164
:1008200008034A462146304600F0F5FE009B033798
:1008300003EB97070097D5F81834002B49D1D5F86A
:10084000104459E02A689A428FD86A60304605B051
:10085000BDE8F0833E491C469946DAE70C40E11CAE
:100860000823424605EB8101DDE7012B55D1BDF898
:1008700004303648C3F38311062928BF062161F3EB
:10088000891302318900ADF8043000F082FE06467B
:10089000002842D000F0ACFE0023082201A9304617
:1008A00000F0B9FE0027BDF80420C2F38312BB009C
:1008B000974203F10803BED200994A1C214003313C
:1008C000009205EB81010422304600F0A4FE0137BE
:1008D000E9E7304600F090FEFFF72CFF80F00100C2
:1008E000C6B2B3E7E3685B7923B1236831461B687E
:1008F00020469847E3681C68002CF3D1304600F08E
:100900007BFE204600F07EFBD5F818340BB9009B27
:100910006B60002000F078FBDEE7D5F8104454B996
:100920000C4B0D480D49C01AC008000440F00200ED
:1009300000F062F8D0E7236820469B689847E36898
:100940001C68ECE7002681E74C020020EC32000036
:10095000580200209C320000BC320000243300000A
:100960002DE9F74F224D04460F46924601A9012278
:100970001846D5F808909B46FFF7F4FD20B3019E7A
:100980004FF00008B21CD84508EB020126D11948E7
:10099000002100F045FB80F31000000440EA144001
:1009A000E400731C04F0380403EA090306EA0906AC
:1009B00044F0010405EB8303033644EA881444EA57
:1009C0008724D86045F8264095F820341BB1FFF7FE
:1009D000BBFE0028FBD103B0BDE8F08F09EA01019E
:1009E00005EB81015AF82830CB6008F10108CAE70D
:1009F0004C0200206806002000231A46FFF7B0BF13
:100A000030B50F49D1F8102403460020144634B9FC
:100A1000DC6820714AB9C1F81034226030BDE46846
:100A20002579854206D02468F1E7D26811682160F3
:100A30001360F3E701300A28E8D14FF0FF30EDE70B
:100A40004C020020094A38B50123D2F8104482F83C
:100A500020341D4604B938BDE3685D712368204623
:100A60005B689847E3681C68F4E700BF4C0200200D
:100A700007B503460846197A052911D05B7A2BB1D0
:100A8000094A0A49019000F063FB01980849019066
:100A900000F05EFB019803B05DF804EB00F04DBB85
:100AA000002AF8D0F2E700BF483300004D330000C1
:100AB0006436000030B5C38885B004460D4633B1B6
:100AC000144A00921449154A284600F041FB217A45
:100AD00005291DD0637A4BB1A088FFF715FE104B96
:100AE000104953F82020284600F032FB227A0E4BA2
:100AF000A08853F8222003920021FFF7E9FD039A12
:100B00000A490346284605B0BDE8304000F020BB46
:100B100005B030BD483300005833000050330000AA
:100B2000D43300004D330000F83300007033000070
:100B30002DE9F04385B01F460C9D002395F80C90DD
:100B40002B7306460C46904629463846FFF7B2FFFF
:100B5000B8F1060F09D8DFE808F00412181F28338F
:100B600040003146284600F0F3FA00222946384674
:100B7000FFF77EFF85F80C9005B0BDE8F083226892
:100B80003146284600F0E4FAEFE7D4E90023314685
:100B9000284600F0DDFAE8E7A36800933146D4E97F
:100BA0000023284600F0D4FADFE7E3680193A36846
:100BB00000933146D4E90023284600F0C9FAD4E76F
:100BC00023690293E3680193A36800933146D4E953
:100BD0000023284600F0BCFAC7E763690393236942
:100BE0000293E3680193A36800933146D4E900239C
:100BF000284600F0ADFAB8E708292DE9F74F8046FE
:100C00000E4617461C463CD8002593F80C901D73E1
:100C100019461046FFF74EFFDFF888A0DFF888B0CE
:100C2000AE4231D918F805205946204600F090FA16
:100C30000135082DF4D11949194DDFF870A020466F
:100C400000F086FA4FF0000B5E4522D918F80B2011
:100C50007E2A05D81046019202F0A0FA019A00B946
:100C60002E225146204600F073FA0BF1010BBBF126
:100C7000080FE9D1012221463846FFF7F9FE84F832
:100C80000C9003B0BDE8F08F5146204600F060FAAA
:100C9000CEE72946204600F05BFAE6E78433000001
:100CA00082330000803300007A3300008633000076
:100CB0001FB50021039001AA44F20100CDE9011102
:100CC00000F004F805B05DF804FB000010B572B642
:100CD000FFF7B8FEFFF738FD0028FBD1104B114C91
:100CE0001149E41AE408240444F00100FFF784FEEB
:100CF0000E4B1B68DB0700D500BE0D4944F0020017
:100D0000FFF77AFEBFF34F8F0A490B4BCA6802F414
:100D1000E0621343CB60BFF34F8F00BFFDE700BF1E
:100D20009C320000BC32000017340000F0ED00E0FF
:100D30002334000000ED00E00400FA0549B152B18F
:100D4000531E1A4007D1826001608380C260104642
:100D500070470E2070470920704710B58468C2683C
:100D60008388121B934208D3C26813400268D1548F
:100D7000C3680133C360002010BD0420FCE7826813
:100D8000C3689A420AD08268838813400268D35CA1
:100D90000B70836801338360002070470520704723
:100DA000C3688360002070470648074A03780749F4
:100DB000D35C012213B1043001F04CBA0C3000F0C6
:100DC000F5BF00BF080000205407002030070020B6
:100DD0000648074A03780749D35C012213B104305F
:100DE00001F0E4B90C3000F08FBF00BF0800002014
:100DF000540700203107002037B50578012D0BD0AE
:100E0000022D2ED065B91E491E48FFF7B8FF0028F5
:100E100032D1FFF7DDFF03E0037A1BB9FFF7C4FF10
:100E200003B030BD4368184C19782046FFF795FF92
:100E300080B18DF800500190144B68461B689847AC
:100E4000A168E368A2885B1A9A42E7D2104B01229C
:100E50001A70E5E7A268E3689A42F1D08DF80000C5
:100E6000EAE7C3688DF800500193FFF79DFF074B39
:100E700068461B689847D3E703238DF80030F6E7F0
:100E800031070020200700200C0700200807002061
:100E90001C070020F0B51F46234B89B004461A609A
:100EA0000D4600293DD08A8820480968FFF746FF93
:100EB000002834D1AA89A9681D48FFF73FFF002800
:100EC0002DD11C4E0FCE6D460FC596E80F0085E85C
:100ED0000F0063690693237C174A18488DF81C702D
:100EE000003B18BF01238DF81430637C002B14BF26
:100EF0000E2300238DF81530E3680293A368039353
:100F00002368019369466368009300F0D5FB30B90C
:100F10000B4B18702368013301D0FFF745FF09B070
:100F2000F0BD0720FBE700BF080700200C070020EA
:100F3000200700203C340000F90D000008000020CC
:100F40001C07002008B50548FFF72AFF20B9BDE8B7
:100F500008400348FFF724BF08BD00BF0C0700206E
:100F60002007002070B5084D014608482E78FFF78D
:100F700006FF044636B100232B70FFF715FF08B1BA
:100F8000FFF796FE204670BD1C0700200C070020CE
:100F900010B501460E48FFF7E0FE0446A8B90D481B
:100FA0000D4A0378D35C63B1043001F047F960B9AE
:100FB0000A490748FFF7E3FE38B9BDE81040FFF7DC
:100FC00007BF0C3000F0E6FEF1E7204610BD00BF81
:100FD00020070020080000205407002031070020CF
:100FE00072B6024A13680133136070473407002059
:100FF000034A1368013B136003B962B6704700BF30
:1010000034070020FFF7ECBFFFF7F2BF024B034AA3
:101010001B681068184700BF4007002038070020F1
:1010200010B5034653E8000F0A4643E8002494F045
:10103000000FF7D110BD10B5034653E8002F42EA68
:10104000010043E8000494F0000FF6D110BD10B584
:10105000034653E8000F00EA010243E8002494F03D
:10106000000FF6D110BD10B5034653E8002F02EB78
:10107000010043E8000494F0000FF6D110BD10B554
:10108000034653E8002FA2EB010043E8000494F06C
:10109000000FF6D110BD0121FFF7CDBF0021FFF7F2
:1010A000D6BF10B590B1D0E9012301689B1ADBB21D
:1010B0000A60013BDBB2FF2B026802D100201071F5
:1010C00010BD11684C1C14600B70F2E70E20F7E79E
:1010D00038B504460020FFF795FF22686368116861
:1010E000994213D9481E106011F8015CE368218A07
:1010F00001FB0535A36811791B1ADBB2994200D2B6
:1011000013710020FFF780FF284638BD0025F8E75F
:1011100038B5054600200C46FFF774FF2A681368AF
:10112000591C1160E968641A298AB4FBF1F41C7037
:10113000BDE838400020FFF767BF826810B504465D
:101140002AB143690168006998470023A36010BD74
:101150000EB403B5039921B104AB01AA019300F0C9
:101160006FF802B05DF804EB03B07047826830B4EA
:101170000468551C8560A154D0E901329A4202D31B
:1011800030BCFFF7DABF30BC704700002DE9F84FE4
:101190009846DDE90A43154682460F460A464FF057
:1011A0000109AA420FD2C14538BFC14613F0010B55
:1011B00001D16CB900240126B8F1010F1BD908F147
:1011C000FF386E43F8E709F10109B2FBF5F2E8E7F1
:1011D0009B070ED5B8F1000F0CBF30262026A14585
:1011E000E9D2013C31465046FFF7C0FF002CF6D152
:1011F000E0E72026F3E7B7FBF6F39D42E1D9DFF8FD
:101200003C80B7FBF6F3504618F8031006FB137743
:10121000FFF7ACFF3346AB42B6FBF5F6F1D2BBF1BC
:10122000000F02D00CB1A14501D3BDE8F88F2021F9
:101230005046013CFFF79AFFF4E700BF5C34000022
:101240002DE9F74F054617468846002900F04281F0
:1012500018F8011B49B92B7B002B00F03B81284675
:1012600003B0BDE8F04FFFF768BF252940F0B78015
:10127000002698F800302D2B424608F1010823D0B3
:10128000302B24D02B2B25D000242A2B02F1010156
:1012900023D13B681A1D1B683A601C440A46137828
:1012A0002E2B26D101324FF0000A104610F8011BF8
:1012B000A1F1300CBCF1090F1DD80A2303FB0A135E
:1012C000A3F1300A0246F0E746F00106D1E746F006
:1012D0000206CEE746F00406CBE711F8013CA3F185
:1012E00030000928DBD80A2202FB0434303C0A46CD
:1012F000CBE74FF0000A12F8011B01F0FB00682851
:101300009046F8D0782909D86F290CD8632962D083
:1013100022D8252963D0582900F0888098F8003019
:10132000002B95D197E770390829F7D801A353F816
:1013300021F000BFAF1400001D1300001D130000BA
:101340003D1400001D1300001B1400001D130000BD
:101350001D1300002D140000642901D06929DDD17E
:101360003A68D2F80090111D89EAE9723960A2EB5F
:10137000E9724FF0010B092A35DCD34538BFD3465B
:101380002CB1B9F1000F01DB720700D5013CB307A6
:1013900002D5BAF1000F03D0F00701D44CBB0024F2
:1013A000B9F1000F2DDAC9F100092D212846FFF708
:1013B000DDFE06F00302022A04D1BAF1000F01D1CA
:1013C0001CBB0024CDE9004653460A224946284664
:1013D000FFF7DCFEA2E73B681A1D19783A60284641
:1013E000FFF7C4FE9AE70A230BF1010BB2FBF3F2FD
:1013F000C1E7A345D4D220212846013CFFF7B6FE21
:10140000CCE77107D5D52B21D0E7A345DAD230211F
:101410002846013CFFF7AAFED2E73968CDE900462D
:101420000A1D3A6053460A220968D0E739680A1D46
:101430003A60CDE9004653461022F5E73B681A1D95
:101440003A6016F00106D3F8009028D1B9F1000FE8
:1014500003D0484601F0F2FE0646B44200D904BB70
:1014600009F1FF3919F8011F00293FF457AF284649
:10147000FFF77CFEF6E728460136FFF777FE19F8FE
:1014800006100029F7D1A642BFF448AF002C3FF464
:1014900045AF20212846013CFFF768FEF3E7002610
:1014A000EDE720212846013CFFF760FED5E73B68C9
:1014B0001A1D3A60302128461C68FFF757FE782134
:1014C0002846FFF753FE00220823CDE900322146CB
:1014D00010227CE703B0BDE8F08F00BF2DE9F84F84
:1014E000B0F806A04579D2F800B09DF828900AFB24
:1014F00005F5043D88460BEB0301A94203F1040402
:1015000088BFA5EB030BB4FBFAF607460AFB1644AB
:10151000C2F800B04EB9AAEB04055D4528BF5D4690
:10152000BBF1000F04D1BDE8F88F3F68013EF1E741
:10153000043408EB06003C442A46B9F1000F0DD0F4
:101540002146ABEB050B01F02EFEDA452E443F6839
:1015500055464FF0000428BF5D46E1E701462046AE
:10156000EFE7FFF79EBDF8B546790146721E0546C6
:10157000002393422D6803D30024A64202D8F8BD6D
:101580000133F6E70F682846FFF7C2FD01343946FC
:10159000F3E72DE9F843068ACD1C0746FFF798FDCF
:1015A000043E35440446B5FBF6F5F0B14FF48073C4
:1015B000EDB28380C680013D076081464FF0000890
:1015C000A84512D23846FFF783FD064648B1637935
:1015D0000133637108F10108C9F800000760814612
:1015E000EEE72046FFF7BFFF34462046BDE8F8830C
:1015F00001210430FFF737BD10B501210446043046
:10160000FFF73DFD10F0FF0F04D12046BDE810406C
:10161000FFF7A9BF10BD1FB503920022009203AAD5
:10162000FFF75CFF05B05DF804FB1FB503920122D4
:10163000009203AAFFF752FF05B05DF804FB836830
:1016400000225A60C3E904229A60DA601A60704787
:101650001FB503788DF800304368019383688DF8D7
:101660000830C368054A0393054B684653F8213098
:1016700052F82110984705B05DF804FB440700209C
:101680004C0700201FB503788DF8003043680193A4
:1016900083688DF80830C368054A0393054B684694
:1016A00053F8213052F82110984705B05DF804FB3B
:1016B000440700204C070020F0B5194B90F800C0FB
:1016C000DFF86CE043F82C20164B16460A6943F805
:1016D0002C204B7F0EF80C300C4607460FCC89B0FF
:1016E0006D460FC594E80F0085E80F001EF80C301A
:1016F000CDF810C04BB1002E0B4A694608BF3246E8
:10170000381D00F06FFC09B0F0BD002E074A694695
:1017100008BF324607F10C0000F020FAF3E700BFE3
:101720004C070020440700205116000085160000D9
:101730005407002000F1804000F5C040002382B033
:10174000036003680193019B02B0704703681F2B7D
:1017500083BF03F01F03036001484FF0A0407047B0
:101760000003005007B5019001A8FFF7EFFF019BB0
:1017700000EB8300D0F8003723F44033C0F8003783
:10178000D0F8003743EA0141C0F8001703B05DF814
:1017900004FB00002DE9F04F002489B0CDE902449C
:1017A000624D4FF48072012102F1804303F5C04382
:1017B00090B21B68012B06D1D5F804330B4202D03E
:1017C000FFF7B8FF0C430432B2F5907F4FEA4101B6
:1017D000EAD1574B1B68012B0ED14FF4BE70FFF7B7
:1017E000A9FF4FF0A04344F00044D3F81035029312
:1017F000504BD3F81035039314F0FF0F1AD04E4F0F
:1018000000250126344210D0AB0003F1804303F5DC
:10181000C043D3F81005D3F8101557F8253023B17D
:10182000C1F30141C0F3052098470135082D4FEA67
:101830004606E7D1002C75DA04AF002304937B60E1
:101840004FF0FF33CDE90633DFF8EC90DFF8EC80A2
:101850000026354618F9012B531C4AD0C2F3C200AA
:101860000123D4B202F03F0B02F0070203FA02F2A6
:1018700008AB191811F8083C13423AD009EB0B03D6
:10188000A40993F9303059F823A0BAF1000F08D118
:10189000032C2ED117F800C04CEA020C07F800C048
:1018A00001E0032CF6D001A8CDF804B0FFF74EFFFD
:1018B000019B11F8181C03F5E07C114250F82C0034
:1018C000C0F3014005D0022813D1032C0BD12146CF
:1018D00004E003280DD1032C05D102215846FFF75F
:1018E00041FF0135EDB2BAF1000F02D02146584652
:1018F000D0470136042EADD1A5B14FF0A0430299D7
:10190000D3F8102503F540739142D3F8103502D176
:101910000399994206D002920393049A059B06927A
:10192000079393E709B0BDE8F08F00BF0060004067
:101930007C6100400003005058070020B8070020D9
:10194000014B1B68184700BFC407002038B50B4B7C
:1019500098420C4601D0002038BD0020FFF752FB12
:10196000074B1D7915B901221C601A710020FFF781
:101970004BFB002DEFD01120EEE700BF0020004010
:10198000C40700200023435082B043580193019BB9
:1019900002B070470A4610B54FF48E71FFF7F2FFA0
:1019A000136A9168C95C136A01331362C0F81C158D
:1019B00010BD024608B500684FF49271FFF7E2FFD0
:1019C0004FF484711068FFF7DDFF136801221A607D
:1019D00008BD8B690A4610B54FF4847123B9FFF72F
:1019E000D1FFD0F8183510BDFFF7CCFF536AD1688E
:1019F000D0F81805C854536A01335362F3E7000066
:101A00001FB501238DF80030044BCDE90110D3E957
:101A100000126846904705B05DF804FBCC07002033
:101A200030B54C48D0F8043313F4007F85B0054638
:101A30004DD0D0F82431002B49D04FF49271FFF7EC
:101A4000A1FF4FF40173C0F80833434B93F82920EA
:101A50000AB9012242603F4902228DF80020D1F8E4
:101A60008024C1F8802403929A690292DA68019274
:101A70000022C3E906226846D3E9001290473548A0
:101A8000D0F81C315BB134494A690B6A9A420A4664
:101A90004AD991F82830002B46D1FFF77BFF2D481B
:101AA000D0F844318BB14FF4A271FFF76BFF2A4B92
:101AB00093F829200AB1012202609A692AB1002212
:101AC000586AD9689A61FFF79BFF05B030BDD5F819
:101AD00004335B07D3D5D5F80831002BCFD01E4C8B
:101AE0001C482146FFF775FF636AA2699A422346A4
:101AF000C5D1E269E1684AB12369E3600023606A05
:101B0000A261E3616362FFF77BFFB8E794F82920E5
:101B10000AB901226A600F4A4FF40170C2F8080343
:101B20000022586A9A61EEE70A484FF48E71FFF777
:101B300029FF5369002BB2D05169029100239168AB
:101B40008DF80030019153616846D2E9001398473F
:101B5000A5E700BF00200040CC0700202DE9F84396
:101B6000634B057991462C2202FB0532064692F81A
:101B70002A200C469846002A40F0B6805D4900684D
:101B8000FFF7E4FE0746002840F0B08021684A1CB9
:101B900010D01F2987BF584A01F01F030B464FF092
:101BA000A0420120984003F5E073C2F80805032025
:101BB00042F823006068431C0DD01F288BBF00F043
:101BC0001F0303464C4A4FF0A04203F5E0734FF069
:101BD000000C42F823C03368A269C3F8242594F8A6
:101BE00014C0627DBCF1010F4CEA0202C3F86C25FF
:101BF000C3F81405C3F80C152BD1A168481C0DD0EF
:101C00001F298BBF01F01F020A463B484FF0A0403E
:101C100002F5E0724FF0000C40F822C0E068421C70
:101C200013D01F2887BF344A00F01F0C84464FF0A2
:101C3000A0424FF0010E0EFA0CFE0CF5E07CC2F84B
:101C400008E54FF0030E42F82CE0C3F80805C3F88E
:101C500010152C236B4308EB0302C2F80490226991
:101C600048F80320B9F1000F2BD03068247F4FF4DF
:101C70008E71FFF787FE30684FF4A271FFF782FE86
:101C800032681E4BC2F80433110B42F30732002AAC
:101C9000A8BF02F160404FEA4413BABF184801F0F0
:101CA0000F0400F56140DBB2B4BF035580F8003388
:101CB00001F01F01012303FA01F15209114B43F80E
:101CC000221033680422C3F800252C2303FB05836C
:101CD0000022C3E9062283F829205A61012283F8F1
:101CE0002A203846BDE8F8830827FAE71127F8E7E5
:101CF000CC070020211A00000003005080000200E1
:101D000014ED00E000E100E02DE9F047204F90F8ED
:101D100004904FF02C0808FB097405466669002EF4
:101D200034D162610068A16026624FF48E7184F83C
:101D30002860FFF727FE2868012383602146FFF70C
:101D400029FE6368A0468BB92868D4F814A0236ADA
:101D50009A4511D82A68D2F81C31002BFBD00123F8
:101D6000D3602C2303FB097300225A613046BDE87F
:101D7000F08794F828303BB9D0F81C31002BF8D00C
:101D80004146FFF707FEE2E70F26EAE71126EDE7F7
:101D9000CC0700200379044A2C2101FB0323586956
:101DA000003818BF01207047CC0700202DE9F84308
:101DB000394F05792C2303FB057306465C6824B173
:101DC00003684FF40170C3F808032C2303FB057369
:101DD000986950B1D86900283ED024B133684FF4D7
:101DE0000172C3F80423112433E09A61D960586268
:101DF000D8612C2303FB057393F829301BB910B964
:101E00003046FFF7D6FD4FF02C0909FB0578306806
:101E1000D8F80430002B34D14FF4A271C146FFF73B
:101E2000B1FD3068D0F82431D0F80821D0F8444111
:101E3000B2B90CB9002BF4D02C2202FB057500229C
:101E4000AA6123BB2CBB95F8291033680122B1B1DC
:101E50001A602046BDE8F8831961DA610120C8E7FD
:101E6000002BE9D1002CE7D14946FFF7B2FDD8F8A5
:101E70002430D8F818209A42D3D82346DCE75A6099
:101E8000E7E74FF40173C0F804330024E1E70324CB
:101E9000DFE70F24DDE700BFCC070020002343501D
:101EA00082B043580193019B02B070471FB50123D4
:101EB0008DF80030044BCDE90110D3E900126846DB
:101EC000904705B05DF804FBF80700207FB5434A52
:101ED000D2F82461002E60D010464FF49271FFF7C3
:101EE000DDFF02238DF80030D2F88034C2F8803450
:101EF0000393D2F83C350293394BDA680192002201
:101F0000C3E906226846D3E9001290473348D0F867
:101F1000443173B14FF4A271FFF7C0FF304B9A699F
:101F20003AB10022C3E90622D968D0F83C05FFF790
:101F3000BDFF2A48D0F82031ABB14FF49071FFF7C4
:101F4000ADFF0123C360264B5A6962B1D0F84C152E
:101F50000291002299688DF8002001915A6168462B
:101F6000D3E9001290471D48D0F858319BB14FF487
:101F7000AC71FFF793FF1A4B5A6962B1D0F84C1558
:101F80000291002299688DF8002001915A616846FB
:101F9000D3E90012904704B070BDD2F81031002B85
:101FA000B4D04FF488711046FFF778FF0C4BD2F88D
:101FB0003C0599698842A9D1DC69D96864B1D2F835
:101FC000005225F02005C2F800521A699C61DA60BF
:101FD000DE61FFF76BFF99E79C61FAE700200040A4
:101FE000F80700202DE9F8436A4B06799146242230
:101FF00002FB0632044692F820200D469846002A3D
:1020000040F0C38064490068FFF7A0FC0746002841
:1020100040F0BD802868421C10D01F2887BF5F4A4F
:1020200000F01F0303464FF0A0420121994003F541
:10203000E073C2F80815032142F8231069684B1CAD
:102040000DD01F298BBF01F01F030B46534A4FF0E1
:10205000A04203F5E0734FF0000C42F823C0236860
:10206000AA69C3F8242595F814C06A7DBCF1010F54
:102070004CEA0202C3F86C25C3F80C05C3F814152A
:102080002BD1A968481C0DD01F298BBF01F01F025E
:102090000A4642484FF0A04002F5E0724FF0000CB3
:1020A00040F822C0E868421C13D01F2887BF3B4A73
:1020B00000F01F0C84464FF0A0424FF0010E0EFAC4
:1020C0000CFE0CF5E07CC2F808E54FF0030E42F878
:1020D0002CE0C3F80805C3F810152423734308EB5C
:1020E0000302C2F804902A6948F80320B9F1000FEE
:1020F0003AD020682A7F4FF48871FFF7CFFE20681E
:102100004FF49071FFF7CAFE20684FF49271FFF709
:10211000C5FE20684FF4A271FFF7C0FE20684FF49F
:10212000AC71FFF7BBFE23681D49C3F80413190BFC
:1021300043F30733002BAEBF03F1604001F00F05FE
:1021400018484FEA4212A8BF00F56140D2B2B4BFAE
:10215000425580F8002301F01F01012202FA01F12B
:102160005B09114A42F8231023680822C3F80025AE
:10217000242303FB06830022C3E906225A610122BD
:1021800083F820203846BDE8F8830827FAE71127AE
:10219000F8E700BFF8070020CD1E00000003005044
:1021A0001003420014ED00E000E100E001F06043A4
:1021B000B3F1005F2DE9F041064638D11E4B077997
:1021C000242505FB073598466C69002C31D16A61DE
:1021D0000068A9604FF49071FFF760FE4FF4AC7196
:1021E0003068FFF75BFE33686A69A968C3F8441575
:1021F000C3F8482501229A606A68AAB9D3F8202159
:10220000D3F858411AB9002CF8D00F2407E0002C5D
:10221000FBD10122DA60D3F85821002AFBD0242315
:1022200003FB078700237B612046BDE8F081102473
:10223000FAE71124F8E700BFF80700200379044A01
:10224000242101FB03235869003818BF012070477F
:10225000F8070020F8B501F06043B3F1005F0446D1
:102260000F465ED10379304D242101FB03514968AB
:1022700021B100684FF40476C0F80863242000FB05
:1022800003539E6956B1D869002839D021B123681B
:102290004FF40472C3F80423112030E09A61DF6028
:1022A000DE6120684FF48871FFF7F8FD20684FF475
:1022B000A271FFF7F3FD2368C3F83475C3F838251E
:1022C00016BB01221A602179242202FB01525268B6
:1022D0000ABBD3F81041D3F84421D3F824011443A6
:1022E00002D10028F5D02246242303FB0155002308
:1022F000984218BF03209A42AB6118BF0F20F8BD67
:102300001F61DA610126CCE7D3F8002242F02002F7
:10231000C3F80022D7E74FF40472C3F80423002067
:10232000EDE71020EBE700BFF80700201F2886BF6D
:10233000054A00F01F004FF0A042012303FA00F00D
:10234000C2F80C05704700BF0003005038B5054DBA
:10235000044645F001054FF47A40A847013CFAD104
:1023600038BD00BFE03600001F2886BF054A00F0D8
:102370001F004FF0A042012303FA00F0C2F8080545
:10238000704700BF000300504FF0A04303222DE927
:10239000F0471520C3F85427C3F85827FFF7E4FF88
:1023A0001620FFF7E1FF4FF480410020FEF772F99D
:1023B00008B1FEF77DFCFEF7A7F8BF4CBF4FDFF872
:1023C0004C83DFF84C9300F015FABD4BE41AE40897
:1023D000240444F0030439462046FEF70DFB414631
:1023E0002046FEF709FB49462046FEF705FBB549A6
:1023F0002046FEF701FBB4492046FEF7FDFAB3493B
:102400002046FEF7F9FA00F07DFD31380428E2D8C5
:10241000DFE810F0050062009C00F5001C01AC49EB
:10242000DFF8F0A2AB4E2046FEF7E6FAAA492046B6
:10243000FEF7E2FA002500F051FA20465146FEF779
:10244000DBFA4FF47A70FFF781FF304600F000FCB2
:10245000012835D0012000F029FA1520FFF766FF8A
:1024600000F052FA9D4800F0F3FB10B9E8B200F01A
:1024700061FA9B492046FEF7BFFA002000F016FAE9
:102480001520FFF771FF00F029FA4FF47A70FFF77B
:102490005DFF304600F0DCFBC0B10135032DCAD131
:1024A00090492046FEF7A8FA00F087FA0A20FFF7C5
:1024B0004DFF00F0C3FA8C492046FEF79DFA8AE7EB
:1024C00000F00CFA304600F0C3FBBEE700F006FA5D
:1024D000304600F0BDFBDCE784497E4D2046FEF728
:1024E0008BFA00F0FBF9284600F0B2FB012827D058
:1024F000012000F0DBF91520FFF736FF00F004FAA9
:10250000764800F0A5FB08B900F014FA002000F0AE
:10251000CDF900F015FB764800F0B8FB002840F03C
:10252000BE8074492046FEF767FA1620FFF7FEFECC
:102530004FF47A70FFF70AFF1620FFF715FF4AE7FE
:1025400000F0CCF9284600F083FBCCE76A49DFF8BD
:10255000C4A1604E2046FEF74FFA5F492046FEF7C1
:102560004BFA002500F0BAF920465146FEF744FA2E
:102570004FF47A70FFF7EAFE304600F069FB01285D
:1025800031D0012000F092F91520FFF7CFFE00F0C6
:10259000BBF9524800F05CFB10B9E8B200F0CAF990
:1025A0004F492046FEF728FA002000F07FF9152059
:1025B000FFF7DAFE00F092F94FF47A70FFF7C6FEEB
:1025C000304600F045FBA0B10135032DCAD1454985
:1025D0002046FEF711FA00F0F0F90A20FFF7B6FEE8
:1025E00000F06DFA67E700F079F9304600F030FB53
:1025F000C2E700F073F9304600F02AFBE0E73B4900
:10260000344D2046FEF7F8F900F068F9284600F04E
:102610001FFB012814D0012000F048F91520FFF716
:10262000A3FE00F071F92D4800F012FB08B900F08C
:1026300081F9002000F03AF900F0C3FA2F486BE767
:1026400000F04CF9284600F003FBDFE72C49214D50
:102650002046FEF7D1F900F041F9284600F0F8FADB
:10266000012816D0012000F021F91520FFF77CFE8B
:1026700000F04AF9194800F0EBFA08B900F05AF9ED
:10268000002000F013F900F09EFA1E4800F014FB41
:1026900044E700F023F9284600F0DAFADDE71A49AA
:1026A0002046FEF7A9F91520FFF740FE4FF47A7097
:1026B000FFF74CFE152040E7BC3200008B340000D1
:1026C0009C320000EE3400000F3500003035000071
:1026D000443500008400002064350000B80000206C
:1026E000AF350000D4350000F23500001736000089
:1026F0001C0000203D3600009536000050000020F0
:10270000BA360000EC00002067360000AC34000050
:10271000CD340000873500000378022B02D14068D9
:10272000FEF7C6BA012BFAD0704710B50446204612
:10273000FEF72EFC0028FAD110BD08B55520FFF792
:10274000F4FFAA20FFF7F1FF0020FFF7EEFFBDE83E
:1027500008400020FFF7E9BF10B504460020FFF74E
:10276000E4FFE0B2BDE81040FFF7DFBF10B504465C
:102770000020FFF7DAFFE0B2BDE81040FFF7D5BF59
:1027800008B50020FFF7D1FF0020FFF7CEFF0020A3
:10279000FFF7CBFF0020FFF7C8FF0020FFF7C5FFC2
:1027A0000020FFF7C2FF0020FFF7BFFF0020FFF768
:1027B000BCFF0020FFF7B9FF0020FFF7B6FF0020A5
:1027C000FFF7B3FF0020FFF7B0FF0020FFF7ADFFDA
:1027D0000020FFF7AAFFBDE808400020FFF7A5BFD3
:1027E00010B50446C0B2FFF7A0FF200ABDE81040B4
:1027F000FFF79BBF30B5124D0FCD8BB004AC0FC4AB
:1028000095E803000F4B104A0093402384E803002F
:10281000CDE9022301930D4A0723694604A8FEF778
:1028200039FB08B1FEF744FA00242046FEF7B0FB5E
:102830000028FAD10134E4B20A2CF6D10BB030BD35
:10284000E83600006A080020AA08002019270000C6
:1028500037B50A4D00241A2C03D1FEF773FB03B0E1
:1028600030BD0DF10700FEF77DFB0028F9D19DF882
:10287000073005F8013B0134E4B2ECE750080020D2
:1028800010B5FFF7E5FF074A07491A230020013B6F
:10289000147821F8024B13F0FF0302F8010BF6D174
:1028A00010BD00BF500800201C08002010B50446D1
:1028B000FFF743FF2420FFF738FFA4B20220FFF701
:1028C0004BFF2046FFF752FFFFF75AFF04F2251097
:1028D000FFF786FFBDE81040FFF7D2BF08B5FFF74E
:1028E0002CFF2120FFF721FF0020FFF735FF0020FC
:1028F000FFF73CFFFFF744FF4FF49070FFF770FFC6
:10290000BDE80840FFF7BCBF08B5FFF716FF202061
:10291000FFF70BFF0020FFF71FFF0020FFF726FF48
:10292000FFF72EFF40F21F10FFF75AFFBDE80840E7
:10293000FFF7A6BF10B50446FFF7FFFE6020FFF7C4
:10294000F4FEA4B20220FFF707FF2046FFF70EFFB8
:102950000020FFF7EAFE0020FFF7E7FE0020FFF768
:10296000E4FE0020FFF7E1FE0020FFF7DEFE00207E
:10297000FFF7DBFE0020FFF7D8FE0020FFF7D5FEB3
:102980000020FFF7D2FE0020FFF7CFFE0020FFF768
:10299000CCFE0020FFF7C9FE0020FFF7C6FE002096
:1029A000FFF7C3FE0020FFF7C0FE04F26110FFF73F
:1029B00017FFBDE81040FFF763BF08B5FFF7BDFE86
:1029C0006120FFF7B2FE0320FFF7C6FE0020FFF7ED
:1029D000CDFE0020FFF7A9FE0320FFF7A6FE002092
:1029E000FFF7A3FE0020FFF7A0FE0020FFF79DFEEB
:1029F0000020FFF79AFE0020FFF797FE0020FFF768
:102A000094FE0020FFF791FE0020FFF78EFE0020CD
:102A1000FFF78BFE0020FFF788FE0020FFF785FE02
:102A20000020FFF782FE0020FFF77FFE4FF4B37017
:102A3000FFF7D6FEBDE80840FFF722BF08B5FFF755
:102A40007CFE4020FFF771FE0420FFF785FE012089
:102A5000FFF78CFE0020FFF768FE0020FFF765FE01
:102A60000020FFF762FE0020FFF75FFE0020FFF767
:102A70005CFE0020FFF759FE0020FFF756FE002005
:102A8000FFF753FE0020FFF750FE0020FFF74DFE3A
:102A90000020FFF74AFE0020FFF747FE0020FFF767
:102AA00044FE0020FFF741FE0020FFF73EFE4FF4FA
:102AB000A270FFF795FEBDE80840FFF7E1BE08B53C
:102AC000FFF73BFE4020FFF730FE0420FFF744FEF7
:102AD0000220FFF74BFE0020FFF727FE0020FFF744
:102AE00024FE0020FFF721FE0020FFF71EFE00203D
:102AF000FFF71BFE0020FFF718FE0020FFF715FE72
:102B00000020FFF712FE0020FFF70FFE0020FFF766
:102B10000CFE0020FFF709FE0020FFF706FE002054
:102B2000FFF703FE0020FFF700FE0020FFF7FDFD8A
:102B300040F24510FFF754FEBDE80840FFF7A0BE85
:102B400008B5FFF7FAFD6420FFF7EFFD0420FFF75B
:102B500003FE0120FFF70AFE0020FFF7E6FD00203C
:102B6000FFF7E3FD0020FFF7E0FD0020FFF7DDFDAC
:102B70000020FFF7DAFD0020FFF7D7FD0020FFF768
:102B8000D4FD0020FFF7D1FD0020FFF7CEFD00208F
:102B9000FFF7CBFD0020FFF7C8FD0020FFF7C5FDC4
:102BA0000020FFF7C2FD0020FFF7BFFD0020FFF768
:102BB000BCFD4FF4B470FFF713FEBDE80840FFF70B
:102BC0005FBEFFF7BDBF08B5FFF7B7FD6320FFF796
:102BD000ACFD0620FFF7CAFD0020FFF7A6FD002090
:102BE000FFF7A3FD0120FFF7A0FD0020FFF79DFDEB
:102BF000D020FFF79AFD0720FFF797FD0020FFF791
:102C000094FD0020FFF791FD0020FFF78EFD0020CE
:102C1000FFF78BFD0020FFF788FD0020FFF785FD03
:102C20000020FFF782FD0020FFF77FFD0020FFF767
:102C30007CFD0020FFF779FD0020FFF776FD4FF4C3
:102C40001070FFF7CDFDBDE80840FFF719BE00008A
:102C500010B58EB001AB821E1946323032F8024FE9
:102C600021F8024B8242F9D1074A1A2033F8024B6D
:102C700032F8021B8C4205D1013810F0FF00F5D16B
:102C80000EB010BD0120FBE71C0800208EB0831E93
:102C900001AA323033F8021F22F8021B8342F9D115
:102CA000044BBDF810009B89C01A18BF01200EB05C
:102CB000704700BF1C080020FFF7E8BF0369C16828
:102CC0008B429DBF8268D21802F1FF3203F1FF33BD
:102CD00094BF501A581A70472DE9F843D0E902946E
:102CE0000546A9EB04084068904520440F4614446B
:102CF00004D900F058FAEC60BDE8F8834246A4EB32
:102D0000090400F050FA6868224607EB0801F0E772
:102D10002DE9F843C5680646894617464FF0000876
:102D20003469B3687068A54228BFE418013C621B8F
:102D30005C1BBC4228BF3C46944228BF144649460F
:102D40002844224600F02FFAB3682544AB4208BF5E
:102D500000253F1BA044A144F560E1D14046BDE8F9
:102D6000F883000010B5114C114AA2610223C4E996
:102D70000433104BE361A2644FF400730E4A0F4911
:102D80002362E26400231022E01DA3626362E36217
:102D9000A3656365E365226500F02EFA08492046C5
:102DA00000F02AFA2023A37110BD00BFEC08002018
:102DB0000037000074090020640900200937000072
:102DC0000D3700002DE9F84F0746214803788A4661
:102DD000164681460BB9FFF7C5FF4FF0180808FBF0
:102DE0000798D8F85850D8F854B05D452DD9D8F880
:102DF0005040D8F84C10641BB44228BF34462944D4
:102E00005046224600F0CFF9D8F850302544A2446D
:102E1000361BAB4208BF0025ABEB0502964228BF2C
:102E2000164656B1182303FB07933246D96C504619
:102E3000294400F0B8F9344435441CB1182000FB93
:102E40000797BD652046BDE8F88F0024E4E700BF82
:102E5000EC08002013B504460020CDE90021FEF760
:102E6000D1F8DDE900212046FFF7ACFF0446002041
:102E7000FEF7CAF8204602B010BD0000F8B5184CA5
:102E8000182300FB033503FB00402544C46A012CD2
:102E90000F4616460FD0022C1AD0F4B92846FFF779
:102EA0000DFF864205D8324639462846FFF714FF03
:102EB00034462046F8BD2846FFF700FF86423446D8
:102EC00028BF0446224639462846FFF705FFF0E7AB
:102ED0002846BDE8F840FFF71BBF0024E9E700BF24
:102EE000EC08002007B501220DF107010020FFF7D3
:102EF000B1FF01280CBF9DF807004FF0FF3003B071
:102F00005DF804FB08B5FFF7EDFF0028FBDB08BD0B
:102F1000FFF728BF054B1B68082B01BF044B18683F
:102F2000B0FA80F0400918BF00207047300100104F
:102F30003401001008B54FF080430022C3F80C2183
:102F4000C3F81021C3F838254FF0805203F54043F1
:102F5000D2F80414C3F82015D2F80814C3F82415C5
:102F6000D2F80C14C3F82815D2F81014C3F82C1595
:102F7000D2F81414C3F83015D2F81814C3F8341565
:102F8000D2F81C14C3F84015D2F82014C3F8441525
:102F9000D2F82414C3F84815D2F82814C3F84C15F5
:102FA000D2F82C14C3F85015D2F83014C3F85415C5
:102FB000D2F83414C3F86015D2F83814C3F8641585
:102FC000D2F83C14C3F86815D2F84014C3F86C1555
:102FD000D2F84424C3F87025FFF79CFF10B1384B9A
:102FE000384A1A60FFF796FF18B1374BFB22C3F837
:102FF0001825FFF78FFF48B13449354B0A681B6825
:1030000022F00F0203F00F0313430B60FFF782FF60
:1030100018B1304B4FF400721A604FF08043D3F870
:103020000024D20744BF6FF00102C3F800242A4AEB
:10303000D2F8883043F47003C2F88830BFF34F8F62
:10304000BFF36F8F4FF01023D3F80022002A03DB69
:10305000D3F80432002B2FDA204B0122C3F80425C9
:10306000D3F80024002AFBD04FF010221221C2F81E
:103070000012D3F80024002AFBD04FF010231222B4
:10308000C3F80422154B1A46D3F800140029FBD0CC
:103090000021C3F80415D2F80034002BFBD0BFF395
:1030A0004F8F0D490E4BCA6802F4E0621343CB60A8
:1030B000BFF34F8F00BFFDE70A4B0B4A1A6008BDF4
:1030C0008C5600404881030000F00040E40E0040B0
:1030D000580200104096024000ED00E000E0014080
:1030E0000400FA05200100200090D0037F2805D8B5
:1030F000034B185C034B5B5C184070470020704723
:1031000020370000A0370000A0F16103192B98BF01
:1031100020387047A0F14103192B98BF2030704729
:103120007F2805D8034B185C034B5B5C1840704745
:103130000020704720370000A0370000A0F1610395
:10314000192B98BF20387047A0F14103192B98BF65
:10315000203070477F299ABF017001206FF02E0048
:1031600070475AB10A787F2A0AD800B1026000215C
:1031700019605960501A18BF01207047002070472D
:103180006FF02E007047000008B5034B5B689B682A
:103190001B68984708BD00BF2401002008B509211D
:1031A000FFF7F2FF08BD844640EA010313F0030F66
:1031B00018D18446202A0BD32DE9F007B1E8F8078F
:1031C000A0E8F807A2F12002202AF7D2BDE8F00714
:1031D000042A07D351F8043B40F8043BA2F104024F
:1031E000042AF7D2002A05D011F8013B00F8013B70
:1031F000013AF9D160467047024610F0030F16D12C
:1032000011F0030F13D12DE9F0004FF001374FF00B
:10321000803351F8044BA4EB070525EA04051D4053
:1032200002D142F8044BF4E7A1F10401F0BC11F81B
:10323000013B02F8013B002BF9D1704700F101017D
:1032400010F0030F11D010F8012B002A23D010F03A
:10325000030F0AD010F8012B002A1CD010F0030F26
:1032600003D010F8012B002A15D02DE970004FF083
:1032700001324FF0803350F8044BA4EB020525EAED
:1032800004051D4000D1F6E7A0F1040070BC10F861
:0C329000012B002AFBD1A0EB01007047CD
:10329C0075340000000000007C34000000000000C9
:1032AC0080340000000000008534000000000000A5
:1032BC0035330000000003030C3400000000000054
:1032CC0030340000000000006C34000000000000EE
:1032DC000833000000000000143300000000002040
:1032EC007C010020440200204C02002084010020BC
:0432FC0018000000B6
:103300000338FDD870470000D503000041040000D9
:10331000D10300007274745F6C6F675F6261636BEE
:10332000656E64004261636B656E647320666C75E4
:103330007368656400617070000000007006002012
:103340007F000000F00600201B5B306D002573003D
:103350001B5B313B33316D0025734C6F6773206409
:10336000726F70706564202825642925730D0A002A
:103370003C25733E2025733A20002025303278000A
:10338000202020007C002563001B5B313B33306D27
:10339000001B5B313B33326D001B5B313B33336DC4
:1033A000001B5B313B33346D001B5B313B33356DB0
:1033B000001B5B313B33366D001B5B313B33376D9C
:1033C000007761726E696E6700696E666F00646592
:1033D00062756700483300008933000050330000F5
:1033E0009133000099330000A1330000A93300009D
:1033F000B1330000B9330000000000001D340000AC
:10340000C1330000C9330000CE3300006170705F2B
:10341000627574746F6E00466174616C20657272BF
:103420006F720053797374656D20726573657400F3
:103430006170705F74696D6572000000FFFFFFFFCF
:10344000FFFFFFFFFFFFFFFFFFFFFFFF0000000088
:10345000000000000000D6010601000030313233C8
:10346000343536373839414243444546736F7274B8
:103470006C697374004750494F54450050525300D3
:103480005541525400554152544500556172747370
:1034900020726561647920666F7220636F6D6D754F
:1034A0006E69636174696F6E200D0A003D3D3D3D9C
:1034B0003D3D3D3D3D3D4D65756E3D3D3D3D3D3D9B
:1034C0003D3D3D3D3D3D3D3D3D200D0A0043726586
:1034D0006174652061206E657720757365722D2D8E
:1034E0002D2D2D2D2D2D2D2D2D31200D0A00566524
:1034F0007269667920796F75722066696E67657288
:103500007072696E742D2D2D2D2D32200D0A003D07
:103510003D3D3D3D3D3D3D3D3D454E443D3D3D3DBB
:103520003D3D3D3D3D3D3D3D3D3D3D3D200D0A0088
:10353000456E74657220796F7572206D6F64653A9F
:10354000200D0A004E6F7720752063616E20637234
:10355000656174652061206E6577207573657221E1
:10356000210D0A00526561647920746F2073746FB5
:10357000726520796F75722066696E676572707208
:10358000696E74200D0A00506C656173652070755A
:103590007420796F75722066696E676572206F6E30
:1035A000207468652053656E736F72200D0A0046A3
:1035B000696E6765725072696E74205265616469E4
:1035C0006E67207375636365737366756C2E2E2E3C
:1035D000200D0A00536176696E6720746865204685
:1035E000696E6765725072696E74732E2E2E200D8F
:1035F0000A005375636365737366756C7920536154
:10360000766564207468652046696E6765725072DD
:10361000696E74200D0A004E6F7720752063616E0D
:103620002056657269667920796F75722066696EB9
:103630006765727072696E7421210D0A0046696EA9
:103640006765727072696E74207265636F676E6908
:1036500074696F6E205375636365737366756C2050
:103660002E2E2E200D0A0046696E676572707269F3
:103670006E74204E6F74205265636F676E697A6551
:10368000642E2E2E20506C65617365205265747215
:1036900079200D0A004E6F7720752063616E2063DC
:1036A00072656174652061206E6577206C6F6F7044
:1036B000207573657221210D0A004E6F77207520E9
:1036C00063616E204D6174636820796F7572206646
:1036D000696E6765727072696E7421210D0A00004F
:1036E0000338FDD8704700001300000014000000EC
:1036F00005000000070000000000000000E0D70106
:103700005465726D696E616C0052545400534547A4
:103710004745520043000000504F534958000000F5
:103720002020202020202020206828282828202031
:103730002020202020202020202020202020202089
:103740004810101010101010101010101010101041
:1037500084848484848484848484101010101010E1
:10376000108181818181810101010101010101013A
:1037700001010101010101010101011010101010EE
:10378000108282828282820202020202020202020B
:1037900002020202020202020202021010101020B3
:1037A00000070320041702010857104080000000A2
:1037B00014370000183800002C39000053756E00D3
:1037C0004D6F6E0054756500576564005468750050
:1037D0004672690053617400000000004A616E0087
:1037E000466562004D617200417072004D61790062
:1037F0004A756E004A756C0041756700536570002C
:103800004F6374004E6F7600446563000000000053
:10381000414D00504D000000503900004C3900006F
:103820004C3900004C3900004C3900004C39000084
:103830004C3900004C3900004C3900004C39000074
:10384000FFFFFFFFFFFFFFFFFFFFFFFFFFFF000086
:103850008C380000BC370000C8380000DC3700009E
:103860001038000070380000203900007C3800005B
:10387000256D2F25642F2579000000002561202566
:1038800062202565202554202559000053756E645B
:103890006179004D6F6E6461790054756573646180
:1038A00079005765646E6573646179005468757258
:1038B000736461790046726964617900536174755B
:1038C00072646179000000004A616E75617279006E
:1038D0004665627275617279004D6172636800417C
:1038E0007072696C004D6179004A756E65004A75A9
:1038F0006C79004175677573740053657074656DFC
:10390000626572004F63746F626572004E6F766518
:103910006D62657200446563656D626572000000EA
:1039200025483A254D3A255300000000ED300000AF
:103930000931000015310000213100003D31000047
:1039400049310000553100006331000000000000E3
:023950002E0047
:1039540000000000FF000000000000000020004004
:10396400000000000020004000000000AA005500F4
:1039740001000000640000000500000000000000D9
:103984000100000001000000000000000000000031
:103994000000000000000000000000006B000100B7
:1039A400AA005500010000006400000005000000AA
:1039B4000000000001000000010000000000000001
:1039C40000000000000000000000000000000000F3
:1039D4006B000100AA005500010000002100000056
:1039E40003000000000000000100000000000000CF
:1039F40000000000000000000000000000000000C3
:103A04000000000025000100AA005500010000008C
:103A14002000000002000000000000000000000080
:103A24000000000000000000000000000000000092
:103A3400000000000000000022000100AA00550060
:103A44000100000063000000050000000000000009
:103A54000100000001000000000000000000000060
:103A640000000000000000000000000071000100E0
:103A74000090D003B0370000B0370000B03700002A
:083A8400B0370000B03700006C
:040000030000037581
:00000001FF
